{
  "contractName": "TasksContract",
  "abi": [
    {
      "inputs": [],
      "stateMutability": "nonpayable",
      "type": "constructor"
    },
    {
      "anonymous": false,
      "inputs": [
        {
          "indexed": false,
          "internalType": "uint256",
          "name": "id",
          "type": "uint256"
        },
        {
          "indexed": false,
          "internalType": "string",
          "name": "title",
          "type": "string"
        },
        {
          "indexed": false,
          "internalType": "string",
          "name": "description",
          "type": "string"
        },
        {
          "indexed": false,
          "internalType": "bool",
          "name": "done",
          "type": "bool"
        },
        {
          "indexed": false,
          "internalType": "uint256",
          "name": "createdAt",
          "type": "uint256"
        }
      ],
      "name": "TaskCreated",
      "type": "event"
    },
    {
      "anonymous": false,
      "inputs": [
        {
          "indexed": false,
          "internalType": "uint256",
          "name": "id",
          "type": "uint256"
        },
        {
          "indexed": false,
          "internalType": "bool",
          "name": "done",
          "type": "bool"
        },
        {
          "indexed": false,
          "internalType": "uint256",
          "name": "updatedAt",
          "type": "uint256"
        }
      ],
      "name": "TaskToggleDone",
      "type": "event"
    },
    {
      "inputs": [],
      "name": "taskCounter",
      "outputs": [
        {
          "internalType": "uint256",
          "name": "",
          "type": "uint256"
        }
      ],
      "stateMutability": "view",
      "type": "function",
      "constant": true
    },
    {
      "inputs": [
        {
          "internalType": "uint256",
          "name": "",
          "type": "uint256"
        }
      ],
      "name": "tasks",
      "outputs": [
        {
          "internalType": "uint256",
          "name": "id",
          "type": "uint256"
        },
        {
          "internalType": "string",
          "name": "title",
          "type": "string"
        },
        {
          "internalType": "string",
          "name": "description",
          "type": "string"
        },
        {
          "internalType": "bool",
          "name": "done",
          "type": "bool"
        },
        {
          "internalType": "uint256",
          "name": "createdAt",
          "type": "uint256"
        }
      ],
      "stateMutability": "view",
      "type": "function",
      "constant": true
    },
    {
      "inputs": [
        {
          "internalType": "string",
          "name": "_title",
          "type": "string"
        },
        {
          "internalType": "string",
          "name": "_description",
          "type": "string"
        }
      ],
      "name": "createTask",
      "outputs": [],
      "stateMutability": "nonpayable",
      "type": "function"
    },
    {
      "inputs": [
        {
          "internalType": "uint256",
          "name": "_id",
          "type": "uint256"
        }
      ],
      "name": "toogleDone",
      "outputs": [],
      "stateMutability": "nonpayable",
      "type": "function"
    }
  ],
  "bytecode": "0x6080604052600080553480156200001557600080fd5b50620000926040518060400160405280600681526020017f5461736b203100000000000000000000000000000000000000000000000000008152506040518060400160405280600e81526020017f5461736b20312047656e657369730000000000000000000000000000000000008152506200009860201b60201c565b6200048d565b60004290506040518060a00160405280600054815260200184815260200183815260200160001515815260200182815250600160008054815260200190815260200160002060008201518160000155602082015181600101908051906020019062000105929190620001b4565b50604082015181600201908051906020019062000124929190620001b4565b5060608201518160030160006101000a81548160ff021916908315150217905550608082015181600401559050507f6549102bed7d1bb5ec529ee14e2ca60ffc1f47f66d4cc6ca713220613cc64c2560005484846000856040516200018e95949392919062000340565b60405180910390a1600080815480929190620001aa90620003da565b9190505550505050565b828054620001c29062000457565b90600052602060002090601f016020900481019282620001e6576000855562000232565b82601f106200020157805160ff191683800117855562000232565b8280016001018555821562000232579182015b828111156200023157825182559160200191906001019062000214565b5b50905062000241919062000245565b5090565b5b808211156200026057600081600090555060010162000246565b5090565b6000819050919050565b620002798162000264565b82525050565b600081519050919050565b600082825260208201905092915050565b60005b83811015620002bb5780820151818401526020810190506200029e565b83811115620002cb576000848401525b50505050565b6000601f19601f8301169050919050565b6000620002ef826200027f565b620002fb81856200028a565b93506200030d8185602086016200029b565b6200031881620002d1565b840191505092915050565b60008115159050919050565b6200033a8162000323565b82525050565b600060a0820190506200035760008301886200026e565b81810360208301526200036b8187620002e2565b90508181036040830152620003818186620002e2565b90506200039260608301856200032f565b620003a160808301846200026e565b9695505050505050565b7f4e487b7100000000000000000000000000000000000000000000000000000000600052601160045260246000fd5b6000620003e78262000264565b91507fffffffffffffffffffffffffffffffffffffffffffffffffffffffffffffffff8214156200041d576200041c620003ab565b5b600182019050919050565b7f4e487b7100000000000000000000000000000000000000000000000000000000600052602260045260246000fd5b600060028204905060018216806200047057607f821691505b6020821081141562000487576200048662000428565b5b50919050565b610947806200049d6000396000f3fe608060405234801561001057600080fd5b506004361061004c5760003560e01c80631f3d803f14610051578063292a45851461006d57806358671730146100895780638d977672146100a7575b600080fd5b61006b600480360381019061006691906104e8565b6100db565b005b6100876004803603810190610082919061065b565b61018e565b005b6100916102a2565b60405161009e91906106e2565b60405180910390f35b6100c160048036038101906100bc91906104e8565b6102a8565b6040516100d29594939291906107a0565b60405180910390f35b6001600082815260200190815260200160002060030160009054906101000a900460ff16156001600083815260200190815260200160002060030160006101000a81548160ff0219169083151502179055507fa824e5e536be9348f628b5a4ad227c3324249853cfc15983bd25dedeb9ca6c08816001600084815260200190815260200160002060030160009054906101000a900460ff164260405161018393929190610801565b60405180910390a150565b60004290506040518060a0016040528060005481526020018481526020018381526020016000151581526020018281525060016000805481526020019081526020016000206000820151816000015560208201518160010190805190602001906101f99291906103fb565b5060408201518160020190805190602001906102169291906103fb565b5060608201518160030160006101000a81548160ff021916908315150217905550608082015181600401559050507f6549102bed7d1bb5ec529ee14e2ca60ffc1f47f66d4cc6ca713220613cc64c25600054848460008560405161027e9594939291906107a0565b60405180910390a160008081548092919061029890610867565b9190505550505050565b60005481565b60016020528060005260406000206000915090508060000154908060010180546102d1906108df565b80601f01602080910402602001604051908101604052809291908181526020018280546102fd906108df565b801561034a5780601f1061031f5761010080835404028352916020019161034a565b820191906000526020600020905b81548152906001019060200180831161032d57829003601f168201915b50505050509080600201805461035f906108df565b80601f016020809104026020016040519081016040528092919081815260200182805461038b906108df565b80156103d85780601f106103ad576101008083540402835291602001916103d8565b820191906000526020600020905b8154815290600101906020018083116103bb57829003601f168201915b5050505050908060030160009054906101000a900460ff16908060040154905085565b828054610407906108df565b90600052602060002090601f0160209004810192826104295760008555610470565b82601f1061044257805160ff1916838001178555610470565b82800160010185558215610470579182015b8281111561046f578251825591602001919060010190610454565b5b50905061047d9190610481565b5090565b5b8082111561049a576000816000905550600101610482565b5090565b6000604051905090565b600080fd5b600080fd5b6000819050919050565b6104c5816104b2565b81146104d057600080fd5b50565b6000813590506104e2816104bc565b92915050565b6000602082840312156104fe576104fd6104a8565b5b600061050c848285016104d3565b91505092915050565b600080fd5b600080fd5b6000601f19601f8301169050919050565b7f4e487b7100000000000000000000000000000000000000000000000000000000600052604160045260246000fd5b6105688261051f565b810181811067ffffffffffffffff8211171561058757610586610530565b5b80604052505050565b600061059a61049e565b90506105a6828261055f565b919050565b600067ffffffffffffffff8211156105c6576105c5610530565b5b6105cf8261051f565b9050602081019050919050565b82818337600083830152505050565b60006105fe6105f9846105ab565b610590565b90508281526020810184848401111561061a5761061961051a565b5b6106258482856105dc565b509392505050565b600082601f83011261064257610641610515565b5b81356106528482602086016105eb565b91505092915050565b60008060408385031215610672576106716104a8565b5b600083013567ffffffffffffffff8111156106905761068f6104ad565b5b61069c8582860161062d565b925050602083013567ffffffffffffffff8111156106bd576106bc6104ad565b5b6106c98582860161062d565b9150509250929050565b6106dc816104b2565b82525050565b60006020820190506106f760008301846106d3565b92915050565b600081519050919050565b600082825260208201905092915050565b60005b8381101561073757808201518184015260208101905061071c565b83811115610746576000848401525b50505050565b6000610757826106fd565b6107618185610708565b9350610771818560208601610719565b61077a8161051f565b840191505092915050565b60008115159050919050565b61079a81610785565b82525050565b600060a0820190506107b560008301886106d3565b81810360208301526107c7818761074c565b905081810360408301526107db818661074c565b90506107ea6060830185610791565b6107f760808301846106d3565b9695505050505050565b600060608201905061081660008301866106d3565b6108236020830185610791565b61083060408301846106d3565b949350505050565b7f4e487b7100000000000000000000000000000000000000000000000000000000600052601160045260246000fd5b6000610872826104b2565b91507fffffffffffffffffffffffffffffffffffffffffffffffffffffffffffffffff8214156108a5576108a4610838565b5b600182019050919050565b7f4e487b7100000000000000000000000000000000000000000000000000000000600052602260045260246000fd5b600060028204905060018216806108f757607f821691505b6020821081141561090b5761090a6108b0565b5b5091905056fea26469706673582212201d950a3ea5fb9f9f7d6f790892662721a53e804a872afcbab26aa2fdca7700d664736f6c63430008090033",
  "immutableReferences": {},
  "source": "// SPDX-License-Identifier: MIT\npragma solidity ^0.8.6;\n\ncontract TasksContract {\n    uint256 public taskCounter = 0;\n\n    constructor() {\n        createTask(\"Task 1\", \"Task 1 Genesis\");\n    }\n\n    event TaskCreated(\n        uint256 id,\n        string title,\n        string description,\n        bool done,\n        uint256 createdAt\n    );\n\n    event TaskToggleDone(uint256 id, bool done, uint256 updatedAt);\n\n    struct Task {\n        uint256 id;\n        string title;\n        string description;\n        bool done;\n        uint256 createdAt;\n    }\n\n    mapping(uint256 => Task) public tasks;\n\n    function createTask(string memory _title, string memory _description)\n        public\n    {\n        uint256 timestamp = block.timestamp;\n        tasks[taskCounter] = Task(\n            taskCounter,\n            _title,\n            _description,\n            false,\n            timestamp\n        );\n        emit TaskCreated(taskCounter, _title, _description, false, timestamp);\n        taskCounter++;\n    }\n\n    function toogleDone(uint256 _id) public {\n        tasks[_id].done = !tasks[_id].done;\n        emit TaskToggleDone(_id, tasks[_id].done, block.timestamp);\n    }\n}\n",
  "sourcePath": "/Volumes/d/DEVELOPMENT/Blockchain/eth-dapp-tasks/contracts/TasksContract.sol",
  "compiler": {
    "name": "solc",
    "version": "0.8.9+commit.e5eed63a.Emscripten.clang"
  },
  "schemaVersion": "3.4.3",
  "updatedAt": "2021-11-09T22:25:40.613Z",
  "networkType": "ethereum",
  "devdoc": {
    "kind": "dev",
    "methods": {},
    "version": 1
  },
  "userdoc": {
    "kind": "user",
    "methods": {},
    "version": 1
  }
}